{
  "contractName": "Ownable",
  "abi": [
    {
      "constant": true,
      "inputs": [],
      "name": "_owner",
      "outputs": [
        {
          "name": "",
          "type": "address"
        }
      ],
      "payable": false,
      "stateMutability": "view",
      "type": "function"
    },
    {
      "inputs": [
        {
          "name": "owner",
          "type": "address"
        }
      ],
      "payable": false,
      "stateMutability": "nonpayable",
      "type": "constructor"
    },
    {
      "constant": false,
      "inputs": [
        {
          "name": "newOwner",
          "type": "address"
        }
      ],
      "name": "transferOwnership",
      "outputs": [],
      "payable": false,
      "stateMutability": "nonpayable",
      "type": "function"
    }
  ],
  "bytecode": "0x608060405234801561001057600080fd5b5060405160208061029983398101806040528101908080519060200190929190505050806000806101000a81548173ffffffffffffffffffffffffffffffffffffffff021916908373ffffffffffffffffffffffffffffffffffffffff16021790555050610216806100836000396000f30060806040526004361061004c576000357c0100000000000000000000000000000000000000000000000000000000900463ffffffff168063b2bdfa7b14610051578063f2fde38b146100a8575b600080fd5b34801561005d57600080fd5b506100666100eb565b604051808273ffffffffffffffffffffffffffffffffffffffff1673ffffffffffffffffffffffffffffffffffffffff16815260200191505060405180910390f35b3480156100b457600080fd5b506100e9600480360381019080803573ffffffffffffffffffffffffffffffffffffffff169060200190929190505050610110565b005b6000809054906101000a900473ffffffffffffffffffffffffffffffffffffffff1681565b6000809054906101000a900473ffffffffffffffffffffffffffffffffffffffff1673ffffffffffffffffffffffffffffffffffffffff163373ffffffffffffffffffffffffffffffffffffffff1614151561016b57600080fd5b600073ffffffffffffffffffffffffffffffffffffffff168173ffffffffffffffffffffffffffffffffffffffff16141515156101a757600080fd5b806000806101000a81548173ffffffffffffffffffffffffffffffffffffffff021916908373ffffffffffffffffffffffffffffffffffffffff160217905550505600a165627a7a72305820fcf35f118b70843b8aaf1614316651db5af0cd6e08681ac5c714fccef748bd740029",
  "source": "pragma solidity ^0.4.24;\r\n\r\ncontract Ownable {\r\n  address public _owner;\r\n\r\n  constructor(address owner) public {\r\n    _owner = owner;\r\n  }\r\n\r\n  modifier onlyOwner() {\r\n    require(msg.sender == _owner);\r\n    _;\r\n  }\r\n\r\n  function transferOwnership(address newOwner) public onlyOwner {\r\n    require(newOwner != address(0));\r\n    _owner = newOwner;\r\n  }\r\n}\r\n",
  "sourcePath": "C:\\Users\\Administrator\\Desktop\\vote\\contracts\\Ownable.sol",
  "compiler": {
    "name": "solc",
    "version": "0.4.24+commit.e67f0147.Emscripten.clang"
  },
  "schemaVersion": "3.4.13",
  "updatedAt": "2023-03-28T05:25:57.839Z",
  "devdoc": {
    "methods": {}
  },
  "userdoc": {
    "methods": {}
  }
}