{
  "contractName": "VoteData",
  "abi": [
    {
      "constant": true,
      "inputs": [],
      "name": "voteControlAddr_",
      "outputs": [
        {
          "name": "",
          "type": "address"
        }
      ],
      "payable": false,
      "stateMutability": "view",
      "type": "function"
    },
    {
      "constant": true,
      "inputs": [],
      "name": "_owner",
      "outputs": [
        {
          "name": "",
          "type": "address"
        }
      ],
      "payable": false,
      "stateMutability": "view",
      "type": "function"
    },
    {
      "constant": false,
      "inputs": [
        {
          "name": "newOwner",
          "type": "address"
        }
      ],
      "name": "transferOwnership",
      "outputs": [],
      "payable": false,
      "stateMutability": "nonpayable",
      "type": "function"
    },
    {
      "inputs": [
        {
          "name": "owner",
          "type": "address"
        }
      ],
      "payable": false,
      "stateMutability": "nonpayable",
      "type": "constructor"
    },
    {
      "constant": false,
      "inputs": [
        {
          "name": "voteControlAddr",
          "type": "address"
        }
      ],
      "name": "setVoteControlAddr",
      "outputs": [],
      "payable": false,
      "stateMutability": "nonpayable",
      "type": "function"
    },
    {
      "constant": false,
      "inputs": [
        {
          "name": "name",
          "type": "string"
        }
      ],
      "name": "newVote",
      "outputs": [
        {
          "name": "",
          "type": "uint256"
        }
      ],
      "payable": false,
      "stateMutability": "nonpayable",
      "type": "function"
    },
    {
      "constant": true,
      "inputs": [],
      "name": "getLastestVote",
      "outputs": [
        {
          "name": "",
          "type": "uint256"
        },
        {
          "name": "",
          "type": "string"
        }
      ],
      "payable": false,
      "stateMutability": "view",
      "type": "function"
    },
    {
      "constant": false,
      "inputs": [
        {
          "name": "voteID",
          "type": "uint256"
        },
        {
          "name": "startTime",
          "type": "uint256"
        },
        {
          "name": "endTime",
          "type": "uint256"
        },
        {
          "name": "dayTimeLimit",
          "type": "bool"
        },
        {
          "name": "dayStartTime",
          "type": "uint256"
        },
        {
          "name": "dayEndTime",
          "type": "uint256"
        },
        {
          "name": "dayVoteLimit",
          "type": "uint256"
        },
        {
          "name": "voteLimitPerUser",
          "type": "uint256"
        },
        {
          "name": "blacklist",
          "type": "address[]"
        },
        {
          "name": "candidates",
          "type": "bytes32[]"
        }
      ],
      "name": "setVoteRule",
      "outputs": [],
      "payable": false,
      "stateMutability": "nonpayable",
      "type": "function"
    },
    {
      "constant": true,
      "inputs": [
        {
          "name": "voteID",
          "type": "uint256"
        }
      ],
      "name": "getVoteRule",
      "outputs": [
        {
          "name": "",
          "type": "uint256"
        },
        {
          "name": "",
          "type": "uint256"
        },
        {
          "name": "",
          "type": "bool"
        },
        {
          "name": "",
          "type": "uint256"
        },
        {
          "name": "",
          "type": "uint256"
        },
        {
          "name": "",
          "type": "uint256"
        },
        {
          "name": "",
          "type": "uint256"
        },
        {
          "name": "",
          "type": "address[]"
        },
        {
          "name": "",
          "type": "bytes32[]"
        }
      ],
      "payable": false,
      "stateMutability": "view",
      "type": "function"
    },
    {
      "constant": false,
      "inputs": [
        {
          "name": "voteID",
          "type": "uint256"
        },
        {
          "name": "msgSender",
          "type": "address"
        },
        {
          "name": "candidateIndex",
          "type": "uint256"
        }
      ],
      "name": "voteUp",
      "outputs": [
        {
          "name": "",
          "type": "int256"
        },
        {
          "name": "",
          "type": "string"
        }
      ],
      "payable": false,
      "stateMutability": "nonpayable",
      "type": "function"
    },
    {
      "constant": true,
      "inputs": [
        {
          "name": "voteID",
          "type": "uint256"
        }
      ],
      "name": "getVoteInfo",
      "outputs": [
        {
          "name": "",
          "type": "string"
        },
        {
          "name": "",
          "type": "uint256"
        },
        {
          "name": "",
          "type": "uint256"
        },
        {
          "name": "",
          "type": "uint256"
        },
        {
          "name": "",
          "type": "uint256"
        }
      ],
      "payable": false,
      "stateMutability": "view",
      "type": "function"
    },
    {
      "constant": true,
      "inputs": [
        {
          "name": "voteID",
          "type": "uint256"
        }
      ],
      "name": "getVoteResult",
      "outputs": [
        {
          "name": "",
          "type": "bytes32[]"
        },
        {
          "name": "",
          "type": "uint256[]"
        }
      ],
      "payable": false,
      "stateMutability": "view",
      "type": "function"
    },
    {
      "constant": true,
      "inputs": [
        {
          "name": "voteID",
          "type": "uint256"
        },
        {
          "name": "startIndex",
          "type": "uint256"
        },
        {
          "name": "num",
          "type": "uint256"
        }
      ],
      "name": "getVoter",
      "outputs": [
        {
          "name": "",
          "type": "address[]"
        },
        {
          "name": "",
          "type": "bytes32[]"
        },
        {
          "name": "",
          "type": "uint256[]"
        }
      ],
      "payable": false,
      "stateMutability": "view",
      "type": "function"
    }
  ],
  "bytecode": "0x608060405234801561001057600080fd5b506040516020806131f98339810180604052810190808051906020019092919050505080806000806101000a81548173ffffffffffffffffffffffffffffffffffffffff021916908373ffffffffffffffffffffffffffffffffffffffff1602179055505050613174806100856000396000f3006080604052600436106100ba576000357c0100000000000000000000000000000000000000000000000000000000900463ffffffff1680630245dc36146100bf5780631e039914146101e55780632c73cf951461027c57806373a2cce7146102f95780637f6aea4e1461035057806384cc063a146104275780638d8242731461046a578063b2bdfa7b1461052c578063bfa0fc9314610583578063cd8715d91461064d578063f2fde38b14610748578063ff6d728a1461078b575b600080fd5b3480156100cb57600080fd5b506100fe60048036038101908080359060200190929190803590602001909291908035906020019092919050505061088a565b60405180806020018060200180602001848103845287818151815260200191508051906020019060200280838360005b8381101561014957808201518184015260208101905061012e565b50505050905001848103835286818151815260200191508051906020019060200280838360005b8381101561018b578082015181840152602081019050610170565b50505050905001848103825285818151815260200191508051906020019060200280838360005b838110156101cd5780820151818401526020810190506101b2565b50505050905001965050505050505060405180910390f35b3480156101f157600080fd5b506101fa610ce4565b6040518083815260200180602001828103825283818151815260200191508051906020019080838360005b83811015610240578082015181840152602081019050610225565b50505050905090810190601f16801561026d5780820380516001836020036101000a031916815260200191505b50935050505060405180910390f35b34801561028857600080fd5b506102e3600480360381019080803590602001908201803590602001908080601f0160208091040260200160405190810160405280939291908181526020018383808284378201915050505050509192919290505050610f08565b6040518082815260200191505060405180910390f35b34801561030557600080fd5b5061030e6110d8565b604051808273ffffffffffffffffffffffffffffffffffffffff1673ffffffffffffffffffffffffffffffffffffffff16815260200191505060405180910390f35b34801561035c57600080fd5b506103a560048036038101908080359060200190929190803573ffffffffffffffffffffffffffffffffffffffff169060200190929190803590602001909291905050506110fe565b6040518083815260200180602001828103825283818151815260200191508051906020019080838360005b838110156103eb5780820151818401526020810190506103d0565b50505050905090810190601f1680156104185780820380516001836020036101000a031916815260200191505b50935050505060405180910390f35b34801561043357600080fd5b50610468600480360381019080803573ffffffffffffffffffffffffffffffffffffffff1690602001909291905050506112bb565b005b34801561047657600080fd5b5061049560048036038101908080359060200190929190505050611396565b6040518080602001868152602001858152602001848152602001838152602001828103825287818151815260200191508051906020019080838360005b838110156104ed5780820151818401526020810190506104d2565b50505050905090810190601f16801561051a5780820380516001836020036101000a031916815260200191505b50965050505050505060405180910390f35b34801561053857600080fd5b50610541611612565b604051808273ffffffffffffffffffffffffffffffffffffffff1673ffffffffffffffffffffffffffffffffffffffff16815260200191505060405180910390f35b34801561058f57600080fd5b506105ae60048036038101908080359060200190929190505050611637565b604051808060200180602001838103835285818151815260200191508051906020019060200280838360005b838110156105f55780820151818401526020810190506105da565b50505050905001838103825284818151815260200191508051906020019060200280838360005b8381101561063757808201518184015260208101905061061c565b5050505090500194505050505060405180910390f35b34801561065957600080fd5b506107466004803603810190808035906020019092919080359060200190929190803590602001909291908035151590602001909291908035906020019092919080359060200190929190803590602001909291908035906020019092919080359060200190820180359060200190808060200260200160405190810160405280939291908181526020018383602002808284378201915050505050509192919290803590602001908201803590602001908080602002602001604051908101604052809392919081815260200183836020028082843782019150505050505091929192905050506118ef565b005b34801561075457600080fd5b50610789600480360381019080803573ffffffffffffffffffffffffffffffffffffffff169060200190929190505050611f9f565b005b34801561079757600080fd5b506107b660048036038101908080359060200190929190505050612079565b604051808a8152602001898152602001881515151581526020018781526020018681526020018581526020018481526020018060200180602001838103835285818151815260200191508051906020019060200280838360005b8381101561082b578082015181840152602081019050610810565b50505050905001838103825284818151815260200191508051906020019060200280838360005b8381101561086d578082015181840152602081019050610852565b505050509050019b50505050505050505050505060405180910390f35b606080606060008060608060606000803373ffffffffffffffffffffffffffffffffffffffff16600160009054906101000a900473ffffffffffffffffffffffffffffffffffffffff1673ffffffffffffffffffffffffffffffffffffffff1614151561095f576040517f08c379a00000000000000000000000000000000000000000000000000000000081526004018080602001828103825260118152602001807f6f6e6c79436f6e74726f6c206572726f7200000000000000000000000000000081525060200191505060405180910390fd5b6002805490508d1015156109db576040517f08c379a000000000000000000000000000000000000000000000000000000000815260040180806020018281038252600d8152602001807f766f7465206964206572726f720000000000000000000000000000000000000081525060200191505060405180910390fd5b60648b11151515610a54576040517f08c379a00000000000000000000000000000000000000000000000000000000081526004018080602001828103825260098152602001807f6e756d206572726f72000000000000000000000000000000000000000000000081525060200191505060405180910390fd5b60028d815481101515610a6357fe5b9060005260206000209060160201965086600a01600301955060008c10158015610a90575085805490508c105b8015610a9c575060008b115b8015610aae575085805490508b8d0111155b1515610b22576040517f08c379a00000000000000000000000000000000000000000000000000000000081526004018080602001828103825260178152602001807f7374617274496e646578206f72206e756d206572726f7200000000000000000081525060200191505060405180910390fd5b8a604051908082528060200260200182016040528015610b515781602001602082028038833980820191505090505b5094508a604051908082528060200260200182016040528015610b835781602001602082028038833980820191505090505b5093508a604051908082528060200260200182016040528015610bb55781602001602082028038833980820191505090505b509250600091505b8a821015610ccb5785828d01815481101515610bd557fe5b906000526020600020906003020190508060000160009054906101000a900473ffffffffffffffffffffffffffffffffffffffff168583815181101515610c1857fe5b9060200190602002019073ffffffffffffffffffffffffffffffffffffffff16908173ffffffffffffffffffffffffffffffffffffffff1681525050866000016008018160010154815481101515610c6c57fe5b90600052602060002001548483815181101515610c8557fe5b90602001906020020190600019169081600019168152505080600201548383815181101515610cb057fe5b90602001906020020181815250508180600101925050610bbd565b8484849950995099505050505050505093509350939050565b6000606060003373ffffffffffffffffffffffffffffffffffffffff16600160009054906101000a900473ffffffffffffffffffffffffffffffffffffffff1673ffffffffffffffffffffffffffffffffffffffff16141515610daf576040517f08c379a00000000000000000000000000000000000000000000000000000000081526004018080602001828103825260118152602001807f6f6e6c79436f6e74726f6c206572726f7200000000000000000000000000000081525060200191505060405180910390fd5b6000600280549050111515610e2c576040517f08c379a00000000000000000000000000000000000000000000000000000000081526004018080602001828103825260098152602001807f6e756c6c20766f7465000000000000000000000000000000000000000000000081525060200191505060405180910390fd5b6002600160028054905003815481101515610e4357fe5b9060005260206000209060160201600a01905060016002805490500381600001808054600181600116156101000203166002900480601f016020809104026020016040519081016040528092919081815260200182805460018160011615610100020316600290048015610ef85780601f10610ecd57610100808354040283529160200191610ef8565b820191906000526020600020905b815481529060010190602001808311610edb57829003601f168201915b5050505050905092509250509091565b6000803373ffffffffffffffffffffffffffffffffffffffff16600160009054906101000a900473ffffffffffffffffffffffffffffffffffffffff1673ffffffffffffffffffffffffffffffffffffffff16141515610fd0576040517f08c379a00000000000000000000000000000000000000000000000000000000081526004018080602001828103825260118152602001807f6f6e6c79436f6e74726f6c206572726f7200000000000000000000000000000081525060200191505060405180910390fd5b60008351111515611049576040517f08c379a000000000000000000000000000000000000000000000000000000000815260040180806020018281038252600f8152602001807f766f7465206e616d65206572726f72000000000000000000000000000000000081525060200191505060405180910390fd5b6002805480919060010161105d9190612cfa565b50600260016002805490500381548110151561107557fe5b906000526020600020906016020190508281600a0160000190805190602001906110a0929190612d2c565b5060008160150160006101000a81548160ff021916908360028111156110c257fe5b0217905550600160028054905003915050919050565b600160009054906101000a900473ffffffffffffffffffffffffffffffffffffffff1681565b6000606060008060603373ffffffffffffffffffffffffffffffffffffffff16600160009054906101000a900473ffffffffffffffffffffffffffffffffffffffff1673ffffffffffffffffffffffffffffffffffffffff161415156111cc576040517f08c379a00000000000000000000000000000000000000000000000000000000081526004018080602001828103825260118152602001807f6f6e6c79436f6e74726f6c206572726f7200000000000000000000000000000081525060200191505060405180910390fd5b60028054905088101515611248576040517f08c379a000000000000000000000000000000000000000000000000000000000815260040180806020018281038252600d8152602001807f766f7465206964206572726f720000000000000000000000000000000000000081525060200191505060405180910390fd5b60028881548110151561125757fe5b90600052602060002090601602019250611272838888612322565b91509150600082131561128a578181945094506112b0565b6112958388886127a7565b60008090506020604051908101604052806000815250945094505b505050935093915050565b6000809054906101000a900473ffffffffffffffffffffffffffffffffffffffff1673ffffffffffffffffffffffffffffffffffffffff163373ffffffffffffffffffffffffffffffffffffffff1614151561131657600080fd5b600073ffffffffffffffffffffffffffffffffffffffff168173ffffffffffffffffffffffffffffffffffffffff161415151561135257600080fd5b80600160006101000a81548173ffffffffffffffffffffffffffffffffffffffff021916908373ffffffffffffffffffffffffffffffffffffffff16021790555050565b606060008060008060008060003373ffffffffffffffffffffffffffffffffffffffff16600160009054906101000a900473ffffffffffffffffffffffffffffffffffffffff1673ffffffffffffffffffffffffffffffffffffffff16141515611468576040517f08c379a00000000000000000000000000000000000000000000000000000000081526004018080602001828103825260118152602001807f6f6e6c79436f6e74726f6c206572726f7200000000000000000000000000000081525060200191505060405180910390fd5b600280549050891015156114e4576040517f08c379a000000000000000000000000000000000000000000000000000000000815260040180806020018281038252600d8152602001807f766f7465206964206572726f720000000000000000000000000000000000000081525060200191505060405180910390fd5b6002898154811015156114f357fe5b9060005260206000209060160201925082600a0191508260150160009054906101000a900460ff16600281111561152657fe5b905082600001600101544211156115465760028081111561154357fe5b90505b8160000182600101805490508360080154838560030180549050848054600181600116156101000203166002900480601f0160208091040260200160405190810160405280929190818152602001828054600181600116156101000203166002900480156115f55780601f106115ca576101008083540402835291602001916115f5565b820191906000526020600020905b8154815290600101906020018083116115d857829003601f168201915b505050505094509750975097509750975050505091939590929450565b6000809054906101000a900473ffffffffffffffffffffffffffffffffffffffff1681565b60608060008060608060003373ffffffffffffffffffffffffffffffffffffffff16600160009054906101000a900473ffffffffffffffffffffffffffffffffffffffff1673ffffffffffffffffffffffffffffffffffffffff16141515611707576040517f08c379a00000000000000000000000000000000000000000000000000000000081526004018080602001828103825260118152602001807f6f6e6c79436f6e74726f6c206572726f7200000000000000000000000000000081525060200191505060405180910390fd5b60028054905088101515611783576040517f08c379a000000000000000000000000000000000000000000000000000000000815260040180806020018281038252600d8152602001807f766f7465206964206572726f720000000000000000000000000000000000000081525060200191505060405180910390fd5b60028881548110151561179257fe5b9060005260206000209060160201945084601301600101935083805490506040519080825280602002602001820160405280156117de5781602001602082028038833980820191505090505b50925083805490506040519080825280602002602001820160405280156118145781602001602082028038833980820191505090505b509150600090505b83805490508110156118df5784600001600801848281548110151561183d57fe5b906000526020600020015481548110151561185457fe5b9060005260206000200154838281518110151561186d57fe5b906020019060200201906000191690816000191681525050846013016000016000858381548110151561189c57fe5b906000526020600020015481526020019081526020016000205482828151811015156118c457fe5b9060200190602002018181525050808060010191505061181c565b8282965096505050505050915091565b60008060003373ffffffffffffffffffffffffffffffffffffffff16600160009054906101000a900473ffffffffffffffffffffffffffffffffffffffff1673ffffffffffffffffffffffffffffffffffffffff161415156119b9576040517f08c379a00000000000000000000000000000000000000000000000000000000081526004018080602001828103825260118152602001807f6f6e6c79436f6e74726f6c206572726f7200000000000000000000000000000081525060200191505060405180910390fd5b6002805490508d101515611a35576040517f08c379a000000000000000000000000000000000000000000000000000000000815260040180806020018281038252600d8152602001807f766f7465206964206572726f720000000000000000000000000000000000000081525060200191505060405180910390fd5b60028d815481101515611a4457fe5b9060005260206000209060160201925060006002811115611a6157fe5b8360150160009054906101000a900460ff166002811115611a7e57fe5b141515611af3576040517f08c379a00000000000000000000000000000000000000000000000000000000081526004018080602001828103825260118152602001807f766f746520737461747573206572726f7200000000000000000000000000000081525060200191505060405180910390fd5b8a8c101515611b6a576040517f08c379a000000000000000000000000000000000000000000000000000000000815260040180806020018281038252600f8152602001807f766f74652074696d65206572726f72000000000000000000000000000000000081525060200191505060405180910390fd5b8915611be8578789101515611be7576040517f08c379a00000000000000000000000000000000000000000000000000000000081526004018080602001828103825260138152602001807f766f7465206461792074696d65206572726f720000000000000000000000000081525060200191505060405180910390fd5b5b600087111515611c60576040517f08c379a00000000000000000000000000000000000000000000000000000000081526004018080602001828103825260148152602001807f64617920766f7465206c696d6974206572726f7200000000000000000000000081525060200191505060405180910390fd5b600086111515611cd8576040517f08c379a00000000000000000000000000000000000000000000000000000000081526004018080602001828103825260198152602001807f766f7465206c696d6974207065722075736572206572726f720000000000000081525060200191505060405180910390fd5b60008451118015611cec575061012c845111155b1515611d60576040517f08c379a00000000000000000000000000000000000000000000000000000000081526004018080602001828103825260148152602001807f63616e64696461746573206e756d206572726f7200000000000000000000000081525060200191505060405180910390fd5b8260000191508b82600001819055508a8260010181905550898260020160006101000a81548160ff02191690831515021790555088826003018190555087826004018190555086826005018190555085826006018190555084826007019080519060200190611dd0929190612dac565b50600090505b8351811015611ef0578160090160008583815181101515611df357fe5b906020019060200201516000191660001916815260200190815260200160002060009054906101000a900460ff16151515611e96576040517f08c379a00000000000000000000000000000000000000000000000000000000081526004018080602001828103825260158152602001807f63616e64696461746573206475706c696361746564000000000000000000000081525060200191505060405180910390fd5b60018260090160008684815181101515611eac57fe5b906020019060200201516000191660001916815260200190815260200160002060006101000a81548160ff0219169083151502179055508080600101915050611dd6565b83826008019080519060200190611f08929190612e36565b50600090505b8351811015611f5557826013016001018190806001815401808255809150509060018203906000526020600020016000909192909190915055508080600101915050611f0e565b611f5f8c84612cd4565b83600a016007018190555060018360150160006101000a81548160ff02191690836002811115611f8b57fe5b021790555050505050505050505050505050565b6000809054906101000a900473ffffffffffffffffffffffffffffffffffffffff1673ffffffffffffffffffffffffffffffffffffffff163373ffffffffffffffffffffffffffffffffffffffff16141515611ffa57600080fd5b600073ffffffffffffffffffffffffffffffffffffffff168173ffffffffffffffffffffffffffffffffffffffff161415151561203657600080fd5b806000806101000a81548173ffffffffffffffffffffffffffffffffffffffff021916908373ffffffffffffffffffffffffffffffffffffffff16021790555050565b600080600080600080600060608060003373ffffffffffffffffffffffffffffffffffffffff16600160009054906101000a900473ffffffffffffffffffffffffffffffffffffffff1673ffffffffffffffffffffffffffffffffffffffff1614151561214e576040517f08c379a00000000000000000000000000000000000000000000000000000000081526004018080602001828103825260118152602001807f6f6e6c79436f6e74726f6c206572726f7200000000000000000000000000000081525060200191505060405180910390fd5b6002805490508b1015156121ca576040517f08c379a000000000000000000000000000000000000000000000000000000000815260040180806020018281038252600d8152602001807f766f7465206964206572726f720000000000000000000000000000000000000081525060200191505060405180910390fd5b60028b8154811015156121d957fe5b90600052602060002090601602016000019050806000015481600101548260020160009054906101000a900460ff1683600301548460040154856005015486600601548760070188600801818054806020026020016040519081016040528092919081815260200182805480156122a557602002820191906000526020600020905b8160009054906101000a900473ffffffffffffffffffffffffffffffffffffffff1673ffffffffffffffffffffffffffffffffffffffff168152602001906001019080831161225b575b50505050509150808054806020026020016040519081016040528092919081815260200182805480156122fb57602002820191906000526020600020905b815460001916815260200190600101908083116122e3575b50505050509050995099509950995099509950995099509950509193959799909294969850565b6000606060008060008060008060008b600a0196508b60000195504294506000600281111561234d57fe5b8c60150160009054906101000a900460ff16600281111561236a57fe5b14806123795750856000015485105b156123c25760018090506040805190810160405280601081526020017f766f7465206e6f7420737461727465640000000000000000000000000000000081525098509850612798565b6002808111156123ce57fe5b8c60150160009054906101000a900460ff1660028111156123eb57fe5b14806123fa5750856001015485115b156124a95760028081111561240b57fe5b8c60150160009054906101000a900460ff16600281111561242857fe5b141580156124395750856001015485115b156124655760028c60150160006101000a81548160ff0219169083600281111561245f57fe5b02179055505b60028090506040805190810160405280600a81526020017f766f746520656e6465640000000000000000000000000000000000000000000081525098509850612798565b8560020160009054906101000a900460ff161561254b57601860086018610e10888115156124d357fe5b048115156124dd57fe5b06018115156124e857fe5b0693508560030154841080612501575085600401548410155b1561254a5760038090506040805190810160405280601381526020017f766f7465206461792074696d65206c696d69740000000000000000000000000081525098509850612798565b5b612555428d612cd4565b92508560050154876006016000858152602001908152602001600020541015156125bd5760048090506040805190810160405280601481526020017f766f7465206c696d69746564207065722064617900000000000000000000000081525098509850612798565b8660020160008c73ffffffffffffffffffffffffffffffffffffffff1673ffffffffffffffffffffffffffffffffffffffff1681526020019081526020016000209150856006015482600201541015156126555760058090506040805190810160405280601981526020017f7573657220766f7465206c696d6974656420706572206461790000000000000081525098509850612798565b600090505b856007018054905081101561272957856007018181548110151561267a57fe5b9060005260206000200160009054906101000a900473ffffffffffffffffffffffffffffffffffffffff1673ffffffffffffffffffffffffffffffffffffffff168b73ffffffffffffffffffffffffffffffffffffffff16141561271c5760068090506040805190810160405280600f81526020017f626c61636b6c697374206572726f72000000000000000000000000000000000081525098509850612798565b808060010191505061265a565b85600801805490508a10151561277d5760078090506040805190810160405280601181526020017f696e76616c69642063616e64696461746500000000000000000000000000000081525098509850612798565b60008090506020604051908101604052806000815250985098505b50505050505050935093915050565b6000806000806000806000808a600a0197508a60130196508760020160008b73ffffffffffffffffffffffffffffffffffffffff1673ffffffffffffffffffffffffffffffffffffffff168152602001908152602001600020955060008660020154141561287857876001018a90806001815401808255809150509060018203906000526020600020016000909192909190916101000a81548173ffffffffffffffffffffffffffffffffffffffff021916908373ffffffffffffffffffffffffffffffffffffffff160217905550505b60008660010160008b81526020019081526020016000205414156129d55785600001899080600181540180825580915050906001820390600052602060002001600090919290919091505550876003016060604051908101604052808c73ffffffffffffffffffffffffffffffffffffffff1681526020018b815260200160008152509080600181540180825580915050906001820390600052602060002090600302016000909192909190915060008201518160000160006101000a81548173ffffffffffffffffffffffffffffffffffffffff021916908373ffffffffffffffffffffffffffffffffffffffff160217905550602082015181600101556040820151816002015550505060018860030180549050038860040160008c73ffffffffffffffffffffffffffffffffffffffff1673ffffffffffffffffffffffffffffffffffffffff168152602001908152602001600020819055505b876003018860040160008c73ffffffffffffffffffffffffffffffffffffffff1673ffffffffffffffffffffffffffffffffffffffff16815260200190815260200160002054815481101515612a2757fe5b9060005260206000209060030201600201600081548092919060010191905055508560010160008a81526020019081526020016000206000815480929190600101919050555085600201600081548092919060010191905055508760080160008154809291906001019190505550612a9f428c612cd4565b94506000886006016000878152602001908152602001600020541415612aee57876005018590806001815401808255809150509060018203906000526020600020016000909192909190915055505b876006016000868152602001908152602001600020600081548092919060010191905055508660000160008a8152602001908152602001600020600081548092919060010191905055508660010193507fffffffffffffffffffffffffffffffffffffffffffffffffffffffffffffffff9250600091505b8380549050821015612ba7578382815481101515612b8057fe5b9060005260206000200154891415612b9a57819250612ba7565b8180600101925050612b66565b7fffffffffffffffffffffffffffffffffffffffffffffffffffffffffffffffff8314151515612bd357fe5b8291505b6000821115612cc7578660000160008560018503815481101515612bf757fe5b90600052602060002001548152602001908152602001600020548760000160008685815481101515612c2557fe5b90600052602060002001548152602001908152602001600020541115612cb9578382815481101515612c5357fe5b906000526020600020015490508360018303815481101515612c7157fe5b90600052602060002001548483815481101515612c8a57fe5b9060005260206000200181905550808460018403815481101515612caa57fe5b90600052602060002001819055505b818060019003925050612bd7565b5050505050505050505050565b600081600a0160070154620151806170808501811515612cf057fe5b0403905092915050565b815481835581811115612d2757601602816016028360005260206000209182019101612d269190612e89565b5b505050565b828054600181600116156101000203166002900490600052602060002090601f016020900481019282601f10612d6d57805160ff1916838001178555612d9b565b82800160010185558215612d9b579182015b82811115612d9a578251825591602001919060010190612d7f565b5b509050612da89190612f96565b5090565b828054828255906000526020600020908101928215612e25579160200282015b82811115612e245782518260006101000a81548173ffffffffffffffffffffffffffffffffffffffff021916908373ffffffffffffffffffffffffffffffffffffffff16021790555091602001919060010190612dcc565b5b509050612e329190612fbb565b5090565b828054828255906000526020600020908101928215612e78579160200282015b82811115612e77578251829060001916905591602001919060010190612e56565b5b509050612e859190612ffe565b5090565b612f9391905b80821115612f8f57600080820160008082016000905560018201600090556002820160006101000a81549060ff02191690556003820160009055600482016000905560058201600090556006820160009055600782016000612ef19190613023565b600882016000612f019190613044565b5050600a820160008082016000612f189190613065565b600182016000612f289190613023565b600382016000612f3891906130ad565b600582016000612f4891906130d1565b600782016000905560088201600090555050601382016000600182016000612f7091906130d1565b50506015820160006101000a81549060ff021916905550601601612e8f565b5090565b90565b612fb891905b80821115612fb4576000816000905550600101612f9c565b5090565b90565b612ffb91905b80821115612ff757600081816101000a81549073ffffffffffffffffffffffffffffffffffffffff021916905550600101612fc1565b5090565b90565b61302091905b8082111561301c576000816000905550600101613004565b5090565b90565b50805460008255906000526020600020908101906130419190612f96565b50565b50805460008255906000526020600020908101906130629190612ffe565b50565b50805460018160011615610100020316600290046000825580601f1061308b57506130aa565b601f0160209004906000526020600020908101906130a99190612f96565b5b50565b50805460008255600302906000526020600020908101906130ce91906130f2565b50565b50805460008255906000526020600020908101906130ef9190612f96565b50565b61314591905b8082111561314157600080820160006101000a81549073ffffffffffffffffffffffffffffffffffffffff021916905560018201600090556002820160009055506003016130f8565b5090565b905600a165627a7a72305820b8258294227ccb66014cd33308e2b03f03210945b8e1f2c2edcf2698acd267d70029",
  "source": "pragma solidity ^0.4.24;\r\n\r\nimport \"../Ownable.sol\";\r\n\r\ncontract VoteData is Ownable {\r\n\r\n  //\r\n  struct VoteRule {\r\n    uint startTime;         //  Uinx\r\n    uint endTime;           //  Unix\r\n    bool dayTimeLimit;      //  false true\r\n    uint dayStartTime;      // \r\n    uint dayEndTime;        // \r\n    uint dayVoteLimit;      //\r\n    uint voteLimitPerUser;  //\r\n    address[] blacklist;    //\r\n    bytes32[] candidates;   //\r\n\r\n    mapping(bytes32 => bool) uniqueCandidates; \r\n  }\r\n\r\n  //\r\n  enum VoteStatus {\r\n    Initial,   //\r\n    Started,   //\r\n    Ended      //\r\n  }\r\n\r\n  //\r\n  struct VoteInfo {\r\n    string name;                                 //\r\n    address[] voterArray;                        //\r\n    mapping(address => Voter) voters;            //\r\n    SimpleVoter[] simpleVoters;                  //\r\n    mapping(address => uint) simpleVotersIndex;  //  \r\n    uint[] dayArray;                             //\r\n    mapping(uint => uint) dayVote;               //\r\n    uint dayStart;                               //  UTC\r\n    uint totalCount;                             //\r\n  }\r\n\r\n  //\r\n  struct SimpleVoter {\r\n    address addr;          //\r\n    uint candidateIndex;   //\r\n    uint count;            //\r\n  }\r\n\r\n  //\r\n  struct Voter {\r\n    uint[] vote;                        //\r\n    mapping(uint => uint) voteCount;    //\r\n    uint totalCount;                    //\r\n  }\r\n\r\n  //\r\n  struct VoteResult {\r\n    mapping(uint => uint) votes;   //\r\n    uint[] rank;                   //\r\n  }\r\n\r\n  struct Vote {\r\n    VoteRule rule;        //\r\n    VoteInfo info;        //\r\n    VoteResult result;    //\r\n    VoteStatus status;    //\r\n  }\r\n\r\n  address public voteControlAddr_;\r\n  Vote[] private votes_;\r\n\r\n  /*\r\n    \r\n    owner\r\n  */\r\n  constructor(address owner) Ownable(owner) public {}\r\n    \r\n  modifier onlyControl() {\r\n    require(voteControlAddr_ == msg.sender, \"onlyControl error\");\r\n    _;\r\n  } \r\n\r\n  // \r\n  function setVoteControlAddr(address voteControlAddr)\r\n    onlyOwner external\r\n  {\r\n    require(voteControlAddr != address(0));\r\n    voteControlAddr_ = voteControlAddr;\r\n  }\r\n\r\n\r\n  /*\r\n    \r\n    name\r\n  */\r\n  function newVote(string name) \r\n    onlyControl public\r\n    returns(uint)\r\n  {\r\n    require(bytes(name).length > 0, \"vote name error\");\r\n    votes_.length++;\r\n    Vote storage vote = votes_[votes_.length-1];\r\n    vote.info.name = name;\r\n    vote.status = VoteStatus.Initial;\r\n    return votes_.length-1;\r\n  }\r\n\r\n  //\r\n  function getLastestVote()\r\n    view onlyControl public\r\n    returns(\r\n      uint,\r\n      string\r\n    )\r\n  {\r\n    require(votes_.length > 0, \"null vote\");\r\n    VoteInfo storage info = votes_[votes_.length-1].info;\r\n    return (\r\n      votes_.length-1,\r\n      info.name\r\n    );\r\n  }\r\n\r\n  // \r\n  function setVoteRule(\r\n    uint voteID,\r\n    uint startTime,\r\n    uint endTime,\r\n    bool dayTimeLimit,\r\n    uint dayStartTime,\r\n    uint dayEndTime,\r\n    uint dayVoteLimit,\r\n    uint voteLimitPerUser,\r\n    address[] blacklist,\r\n    bytes32[] candidates\r\n    )\r\n    onlyControl public \r\n  {\r\n    require(voteID < votes_.length, \"vote id error\");\r\n    Vote storage vote = votes_[voteID];\r\n    require(vote.status == VoteStatus.Initial, \"vote status error\");\r\n    require(startTime < endTime, \"vote time error\");\r\n    if (dayTimeLimit) {\r\n      require(dayStartTime < dayEndTime, \"vote day time error\");\r\n    }\r\n    require(dayVoteLimit > 0, \"day vote limit error\");\r\n    require(voteLimitPerUser > 0, \"vote limit per user error\");\r\n    require(candidates.length > 0 && candidates.length <= 300, \"candidates num error\");\r\n\r\n    VoteRule storage rule = vote.rule;\r\n    rule.startTime = startTime;\r\n    rule.endTime = endTime;\r\n    rule.dayTimeLimit = dayTimeLimit;\r\n    rule.dayStartTime = dayStartTime;\r\n    rule.dayEndTime = dayEndTime;\r\n    rule.dayVoteLimit = dayVoteLimit;\r\n    rule.voteLimitPerUser = voteLimitPerUser;\r\n    rule.blacklist = blacklist;\r\n\r\n    //check candidates\r\n    for(uint i = 0; i < candidates.length; i++) {\r\n      require(!rule.uniqueCandidates[candidates[i]], \"candidates duplicated\");\r\n      rule.uniqueCandidates[candidates[i]] = true;\r\n    }\r\n\r\n    rule.candidates = candidates;\r\n\r\n    //init rank info\r\n    for(i = 0; i < candidates.length; i++) {\r\n      vote.result.rank.push(i);\r\n    }\r\n\r\n    vote.info.dayStart = _getTheDay(startTime, vote);\r\n\r\n    vote.status = VoteStatus.Started;\r\n  }\r\n\r\n  // \r\n  function getVoteRule(uint voteID)\r\n    onlyControl view public\r\n    returns( \r\n      uint,\r\n      uint,\r\n      bool,\r\n      uint,\r\n      uint,\r\n      uint,\r\n      uint,\r\n      address[],\r\n      bytes32[]\r\n    )\r\n  {\r\n    require(voteID < votes_.length, \"vote id error\");\r\n    VoteRule storage rule = votes_[voteID].rule;\r\n    return (\r\n      rule.startTime,\r\n      rule.endTime,\r\n      rule.dayTimeLimit,\r\n      rule.dayStartTime,\r\n      rule.dayEndTime,\r\n      rule.dayVoteLimit,\r\n      rule.voteLimitPerUser,\r\n      rule.blacklist,\r\n      rule.candidates\r\n    );    \r\n  }\r\n\r\n  // \r\n  function voteUp(uint voteID, address msgSender, uint candidateIndex) \r\n    onlyControl public\r\n    returns (int, string)\r\n  {\r\n    require(voteID < votes_.length, \"vote id error\");\r\n    Vote storage vote = votes_[voteID];\r\n    \r\n    (int errCode, string memory errMsg) = _checkVote(vote, msgSender, candidateIndex);\r\n    if (errCode > 0) {\r\n      return (errCode, errMsg);\r\n    }\r\n    _vote(vote, msgSender, candidateIndex);\r\n    return (0, \"\");\r\n  }\r\n\r\n  // \r\n  function _checkVote(Vote storage vote, address msgSender, uint candidateIndex)\r\n    internal\r\n    returns(int, string)\r\n  {\r\n    VoteInfo storage info = vote.info;\r\n    VoteRule storage rule = vote.rule;\r\n\r\n    uint timeNow = now;\r\n    if (vote.status == VoteStatus.Initial || timeNow < rule.startTime) {\r\n      return (1, \"vote not started\");\r\n    }\r\n   \r\n    if (vote.status == VoteStatus.Ended || timeNow > rule.endTime) {\r\n      if (vote.status != VoteStatus.Ended && timeNow > rule.endTime) {\r\n        vote.status = VoteStatus.Ended;\r\n      }\r\n      return(2, \"vote ended\");\r\n    }\r\n\r\n    if (rule.dayTimeLimit) {\r\n      uint timeHour = (((timeNow / 3600) % 24) + 8) % 24;\r\n      if (timeHour < rule.dayStartTime || timeHour >= rule.dayEndTime) {\r\n        return(3, \"vote day time limit\");\r\n      }\r\n    }\r\n  \r\n    uint day = _getTheDay(now, vote);\r\n    if (info.dayVote[day] >= rule.dayVoteLimit) {\r\n      return(4, \"vote limited per day\");\r\n    }\r\n\r\n    Voter storage voter = info.voters[msgSender];\r\n    if (voter.totalCount >= rule.voteLimitPerUser) {\r\n      return(5, \"user vote limited per day\");\r\n    }\r\n\r\n    for(uint i = 0; i < rule.blacklist.length; i++) {\r\n      if (msgSender == rule.blacklist[i]) {\r\n        return(6, \"blacklist error\");\r\n      }\r\n    }\r\n\r\n    if (candidateIndex >= rule.candidates.length) {\r\n      return(7, \"invalid candidate\");\r\n    }\r\n    return (0, \"\"); \r\n  }\r\n\r\n  function _getTheDay(uint timestamp, Vote storage vote)\r\n    view internal \r\n    returns(uint) \r\n  {\r\n    return ((timestamp + 8 hours)/ 1 days) - vote.info.dayStart;\r\n  }  \r\n\r\n  // \r\n  function _vote(Vote storage vote, address msgSender, uint candidateIndex)\r\n   internal \r\n  {\r\n    VoteInfo storage info = vote.info;\r\n    VoteResult storage result = vote.result;\r\n\r\n    Voter storage voter = info.voters[msgSender];\r\n\r\n    if (voter.totalCount == 0) {\r\n      info.voterArray.push(msgSender);\r\n    }\r\n\r\n    //vote for the candidate first time\r\n    if (voter.voteCount[candidateIndex] == 0) {\r\n      voter.vote.push(candidateIndex);\r\n      info.simpleVoters.push(SimpleVoter({\r\n        addr: msgSender,\r\n        candidateIndex: candidateIndex,\r\n        count: 0\r\n      }));\r\n      info.simpleVotersIndex[msgSender] = info.simpleVoters.length - 1;\r\n    }\r\n\r\n    info.simpleVoters[info.simpleVotersIndex[msgSender]].count++;\r\n    voter.voteCount[candidateIndex]++;\r\n    voter.totalCount++;\r\n    info.totalCount++;\r\n\r\n    uint day = _getTheDay(now, vote);\r\n    if (info.dayVote[day] == 0) {\r\n      info.dayArray.push(day);\r\n    }\r\n    info.dayVote[day]++;\r\n\r\n    result.votes[candidateIndex]++;\r\n\r\n    uint[] storage rank = result.rank;\r\n\r\n    //vote rank\r\n    int startIndex = -1;\r\n    for (uint i = 0; i < rank.length; i++) {\r\n      if (candidateIndex == rank[i]) {\r\n        startIndex = int(i);\r\n        break;\r\n      }\r\n    }\r\n    assert(startIndex != -1);\r\n\r\n    for (i = uint(startIndex); i > 0; i--) {\r\n      if (result.votes[rank[i]] > result.votes[rank[i-1]]) {\r\n        //swap element\r\n        uint tmp = rank[i];\r\n        rank[i] = rank[i-1];\r\n        rank[i-1] = tmp; \r\n      } \r\n    }\r\n  }\r\n\r\n\r\n\r\n  // \r\n  function getVoteInfo(uint voteID) \r\n    onlyControl view public\r\n    returns(\r\n      string,   //\r\n      uint,     //\r\n      uint,     //\r\n      uint,     //\r\n      uint      //\r\n    )  \r\n  { \r\n    require(voteID < votes_.length, \"vote id error\");\r\n    Vote storage vote = votes_[voteID];\r\n    VoteInfo storage info = vote.info;\r\n\r\n    uint status = uint(vote.status);\r\n    if (now > vote.rule.endTime) {\r\n      status = uint(VoteStatus.Ended);\r\n    }\r\n\r\n    return(\r\n      info.name,\r\n      info.voterArray.length,\r\n      info.totalCount,\r\n      status,\r\n      info.simpleVoters.length\r\n    );\r\n  }\r\n\r\n  // \r\n  function getVoteResult(uint voteID) \r\n    onlyControl view public\r\n    returns(\r\n      bytes32[],\r\n      uint[]\r\n    )\r\n  { \r\n    require(voteID < votes_.length, \"vote id error\");\r\n    Vote storage vote = votes_[voteID];\r\n\r\n    uint[] storage rank = vote.result.rank;\r\n    bytes32[] memory candidatesRank = new bytes32[](rank.length);\r\n    uint[] memory counts = new uint[](rank.length);\r\n\r\n    for (uint i = 0; i < rank.length; i++) {\r\n      candidatesRank[i] = vote.rule.candidates[rank[i]];\r\n      counts[i] = vote.result.votes[rank[i]];\r\n    }\r\n    return (candidatesRank, counts);\r\n  }\r\n\r\n  // \r\n  function getVoter(uint voteID, uint startIndex, uint num)\r\n    onlyControl view public\r\n    returns(\r\n      address[],  //\r\n      bytes32[],  //\r\n      uint[]      //\r\n    )\r\n  { \r\n    require(voteID < votes_.length, \"vote id error\");\r\n    require(num <= 100, \"num error\");\r\n    Vote storage vote = votes_[voteID];\r\n    SimpleVoter[] storage voters = vote.info.simpleVoters;\r\n\r\n    require(startIndex >= 0 &&\r\n            startIndex < voters.length &&\r\n            num > 0 &&\r\n            startIndex + num <= voters.length, \"startIndex or num error\");\r\n\r\n    address[] memory addrs = new address[](num);\r\n    bytes32[] memory candidates = new bytes32[](num);\r\n    uint[] memory counts = new uint[](num);\r\n\r\n    for(uint i = 0; i < num; i++) {\r\n      SimpleVoter storage voter = voters[startIndex+i];\r\n      addrs[i] = voter.addr;\r\n      candidates[i] = vote.rule.candidates[voter.candidateIndex];\r\n      counts[i] = voter.count;\r\n    }\r\n    return (addrs, candidates, counts);\r\n  }\r\n}\r\n",
  "sourcePath": "C:\\Users\\Administrator\\Desktop\\vote\\contracts\\vote-system\\VoteData.sol",
  "compiler": {
    "name": "solc",
    "version": "0.4.24+commit.e67f0147.Emscripten.clang"
  },
  "schemaVersion": "3.4.13",
  "updatedAt": "2023-03-28T05:26:02.959Z",
  "networkType": "ethereum",
  "devdoc": {
    "methods": {}
  },
  "userdoc": {
    "methods": {}
  }
}