{
  "contractName": "VoteControl",
  "abi": [
    {
      "constant": true,
      "inputs": [],
      "name": "_owner",
      "outputs": [
        {
          "name": "",
          "type": "address"
        }
      ],
      "payable": false,
      "stateMutability": "view",
      "type": "function"
    },
    {
      "constant": false,
      "inputs": [
        {
          "name": "newOwner",
          "type": "address"
        }
      ],
      "name": "transferOwnership",
      "outputs": [],
      "payable": false,
      "stateMutability": "nonpayable",
      "type": "function"
    },
    {
      "inputs": [
        {
          "name": "owner",
          "type": "address"
        },
        {
          "name": "voteDataAddr",
          "type": "address"
        }
      ],
      "payable": false,
      "stateMutability": "nonpayable",
      "type": "constructor"
    },
    {
      "constant": false,
      "inputs": [
        {
          "name": "voteDataAddr",
          "type": "address"
        }
      ],
      "name": "updateVoteData",
      "outputs": [],
      "payable": false,
      "stateMutability": "nonpayable",
      "type": "function"
    },
    {
      "constant": false,
      "inputs": [
        {
          "name": "name",
          "type": "string"
        }
      ],
      "name": "newVote",
      "outputs": [
        {
          "name": "",
          "type": "uint256"
        }
      ],
      "payable": false,
      "stateMutability": "nonpayable",
      "type": "function"
    },
    {
      "constant": true,
      "inputs": [],
      "name": "getLastVote",
      "outputs": [
        {
          "name": "",
          "type": "uint256"
        },
        {
          "name": "",
          "type": "string"
        }
      ],
      "payable": false,
      "stateMutability": "view",
      "type": "function"
    },
    {
      "constant": false,
      "inputs": [
        {
          "name": "voteID",
          "type": "uint256"
        },
        {
          "name": "startTime",
          "type": "uint256"
        },
        {
          "name": "endTime",
          "type": "uint256"
        },
        {
          "name": "dayTimeLimit",
          "type": "bool"
        },
        {
          "name": "dayStartTime",
          "type": "uint256"
        },
        {
          "name": "dayEndTime",
          "type": "uint256"
        },
        {
          "name": "dayVoteLimit",
          "type": "uint256"
        },
        {
          "name": "voteLimitPerUser",
          "type": "uint256"
        },
        {
          "name": "blacklist",
          "type": "address[]"
        },
        {
          "name": "candidates",
          "type": "bytes32[]"
        }
      ],
      "name": "setVoteRule",
      "outputs": [],
      "payable": false,
      "stateMutability": "nonpayable",
      "type": "function"
    },
    {
      "constant": true,
      "inputs": [
        {
          "name": "voteID",
          "type": "uint256"
        }
      ],
      "name": "getVoteRule",
      "outputs": [
        {
          "name": "",
          "type": "uint256"
        },
        {
          "name": "",
          "type": "uint256"
        },
        {
          "name": "",
          "type": "bool"
        },
        {
          "name": "",
          "type": "uint256"
        },
        {
          "name": "",
          "type": "uint256"
        },
        {
          "name": "",
          "type": "uint256"
        },
        {
          "name": "",
          "type": "uint256"
        },
        {
          "name": "",
          "type": "address[]"
        },
        {
          "name": "",
          "type": "bytes32[]"
        }
      ],
      "payable": false,
      "stateMutability": "view",
      "type": "function"
    },
    {
      "constant": true,
      "inputs": [
        {
          "name": "voteID",
          "type": "uint256"
        },
        {
          "name": "startIndex",
          "type": "uint256"
        },
        {
          "name": "num",
          "type": "uint256"
        }
      ],
      "name": "getVoter",
      "outputs": [
        {
          "name": "",
          "type": "address[]"
        },
        {
          "name": "",
          "type": "bytes32[]"
        },
        {
          "name": "",
          "type": "uint256[]"
        }
      ],
      "payable": false,
      "stateMutability": "view",
      "type": "function"
    },
    {
      "constant": true,
      "inputs": [
        {
          "name": "voteID",
          "type": "uint256"
        }
      ],
      "name": "getVoteResult",
      "outputs": [
        {
          "name": "",
          "type": "bytes32[]"
        },
        {
          "name": "",
          "type": "uint256[]"
        }
      ],
      "payable": false,
      "stateMutability": "view",
      "type": "function"
    },
    {
      "constant": true,
      "inputs": [
        {
          "name": "voteID",
          "type": "uint256"
        }
      ],
      "name": "getVoteInfo",
      "outputs": [
        {
          "name": "",
          "type": "string"
        },
        {
          "name": "",
          "type": "uint256"
        },
        {
          "name": "",
          "type": "uint256"
        },
        {
          "name": "",
          "type": "uint256"
        },
        {
          "name": "",
          "type": "uint256"
        }
      ],
      "payable": false,
      "stateMutability": "view",
      "type": "function"
    },
    {
      "constant": false,
      "inputs": [
        {
          "name": "voteID",
          "type": "uint256"
        },
        {
          "name": "candidateIndex",
          "type": "uint256"
        }
      ],
      "name": "vote",
      "outputs": [
        {
          "name": "",
          "type": "int256"
        },
        {
          "name": "",
          "type": "string"
        }
      ],
      "payable": false,
      "stateMutability": "nonpayable",
      "type": "function"
    }
  ],
  "bytecode": "0x608060405234801561001057600080fd5b506040516040806117e7833981018060405281019080805190602001909291908051906020019092919050505081806000806101000a81548173ffffffffffffffffffffffffffffffffffffffff021916908373ffffffffffffffffffffffffffffffffffffffff16021790555050600073ffffffffffffffffffffffffffffffffffffffff168273ffffffffffffffffffffffffffffffffffffffff16141515156100bb57600080fd5b600073ffffffffffffffffffffffffffffffffffffffff168173ffffffffffffffffffffffffffffffffffffffff16141515156100f757600080fd5b80600160006101000a81548173ffffffffffffffffffffffffffffffffffffffff021916908373ffffffffffffffffffffffffffffffffffffffff160217905550505061169e806101496000396000f3006080604052600436106100af576000357c0100000000000000000000000000000000000000000000000000000000900463ffffffff1680630245dc36146100b45780632c73cf95146101da5780633780dd15146102295780634a6c7f20146102c05780638d82427314610303578063b2bdfa7b146103c5578063b384abef1461041c578063bfa0fc93146104d3578063cd8715d91461059d578063f2fde38b14610642578063ff6d728a14610685575b600080fd5b3480156100c057600080fd5b506100f3600480360381019080803590602001909291908035906020019092919080359060200190929190505050610784565b60405180806020018060200180602001848103845287818151815260200191508051906020019060200280838360005b8381101561013e578082015181840152602081019050610123565b50505050905001848103835286818151815260200191508051906020019060200280838360005b83811015610180578082015181840152602081019050610165565b50505050905001848103825285818151815260200191508051906020019060200280838360005b838110156101c25780820151818401526020810190506101a7565b50505050905001965050505050505060405180910390f35b3480156101e657600080fd5b50610213600480360381019080803590602001908201803590602001919091929391929390505050610968565b6040518082815260200191505060405180910390f35b34801561023557600080fd5b5061023e610ab3565b6040518083815260200180602001828103825283818151815260200191508051906020019080838360005b83811015610284578082015181840152602081019050610269565b50505050905090810190601f1680156102b15780820380516001836020036101000a031916815260200191505b50935050505060405180910390f35b3480156102cc57600080fd5b50610301600480360381019080803573ffffffffffffffffffffffffffffffffffffffff169060200190929190505050610c3b565b005b34801561030f57600080fd5b5061032e60048036038101908080359060200190929190505050610d16565b6040518080602001868152602001858152602001848152602001838152602001828103825287818151815260200191508051906020019080838360005b8381101561038657808201518184015260208101905061036b565b50505050905090810190601f1680156103b35780820380516001836020036101000a031916815260200191505b50965050505050505060405180910390f35b3480156103d157600080fd5b506103da610e7e565b604051808273ffffffffffffffffffffffffffffffffffffffff1673ffffffffffffffffffffffffffffffffffffffff16815260200191505060405180910390f35b34801561042857600080fd5b506104516004803603810190808035906020019092919080359060200190929190505050610ea3565b6040518083815260200180602001828103825283818151815260200191508051906020019080838360005b8381101561049757808201518184015260208101905061047c565b50505050905090810190601f1680156104c45780820380516001836020036101000a031916815260200191505b50935050505060405180910390f35b3480156104df57600080fd5b506104fe6004803603810190808035906020019092919050505061109e565b604051808060200180602001838103835285818151815260200191508051906020019060200280838360005b8381101561054557808201518184015260208101905061052a565b50505050905001838103825284818151815260200191508051906020019060200280838360005b8381101561058757808201518184015260208101905061056c565b5050505090500194505050505060405180910390f35b3480156105a957600080fd5b506106406004803603810190808035906020019092919080359060200190929190803590602001909291908035151590602001909291908035906020019092919080359060200190929190803590602001909291908035906020019092919080359060200190820180359060200191909192939192939080359060200190820180359060200191909192939192939050505061121b565b005b34801561064e57600080fd5b50610683600480360381019080803573ffffffffffffffffffffffffffffffffffffffff1690602001909291905050506113b3565b005b34801561069157600080fd5b506106b06004803603810190808035906020019092919050505061148d565b604051808a8152602001898152602001881515151581526020018781526020018681526020018581526020018481526020018060200180602001838103835285818151815260200191508051906020019060200280838360005b8381101561072557808201518184015260208101905061070a565b50505050905001838103825284818151815260200191508051906020019060200280838360005b8381101561076757808201518184015260208101905061074c565b505050509050019b50505050505050505050505060405180910390f35b6060806060600160009054906101000a900473ffffffffffffffffffffffffffffffffffffffff1673ffffffffffffffffffffffffffffffffffffffff16630245dc368787876040518463ffffffff167c0100000000000000000000000000000000000000000000000000000000028152600401808481526020018381526020018281526020019350505050600060405180830381600087803b15801561082a57600080fd5b505af115801561083e573d6000803e3d6000fd5b505050506040513d6000823e3d601f19601f82011682018060405250606081101561086857600080fd5b81019080805164010000000081111561088057600080fd5b8281019050602081018481111561089657600080fd5b81518560208202830111640100000000821117156108b357600080fd5b505092919060200180516401000000008111156108cf57600080fd5b828101905060208101848111156108e557600080fd5b815185602082028301116401000000008211171561090257600080fd5b5050929190602001805164010000000081111561091e57600080fd5b8281019050602081018481111561093457600080fd5b815185602082028301116401000000008211171561095157600080fd5b505092919050505092509250925093509350939050565b60008060009054906101000a900473ffffffffffffffffffffffffffffffffffffffff1673ffffffffffffffffffffffffffffffffffffffff163373ffffffffffffffffffffffffffffffffffffffff161415156109c557600080fd5b600160009054906101000a900473ffffffffffffffffffffffffffffffffffffffff1673ffffffffffffffffffffffffffffffffffffffff16632c73cf9584846040518363ffffffff167c01000000000000000000000000000000000000000000000000000000000281526004018080602001828103825284848281815260200192508082843782019150509350505050602060405180830381600087803b158015610a7057600080fd5b505af1158015610a84573d6000803e3d6000fd5b505050506040513d6020811015610a9a57600080fd5b8101908080519060200190929190505050905092915050565b600060606000809054906101000a900473ffffffffffffffffffffffffffffffffffffffff1673ffffffffffffffffffffffffffffffffffffffff163373ffffffffffffffffffffffffffffffffffffffff16141515610b1257600080fd5b600160009054906101000a900473ffffffffffffffffffffffffffffffffffffffff1673ffffffffffffffffffffffffffffffffffffffff16631e0399146040518163ffffffff167c0100000000000000000000000000000000000000000000000000000000028152600401600060405180830381600087803b158015610b9857600080fd5b505af1158015610bac573d6000803e3d6000fd5b505050506040513d6000823e3d601f19601f820116820180604052506040811015610bd657600080fd5b81019080805190602001909291908051640100000000811115610bf857600080fd5b82810190506020810184811115610c0e57600080fd5b8151856001820283011164010000000082111715610c2b57600080fd5b5050929190505050915091509091565b6000809054906101000a900473ffffffffffffffffffffffffffffffffffffffff1673ffffffffffffffffffffffffffffffffffffffff163373ffffffffffffffffffffffffffffffffffffffff16141515610c9657600080fd5b600073ffffffffffffffffffffffffffffffffffffffff168173ffffffffffffffffffffffffffffffffffffffff1614151515610cd257600080fd5b80600160006101000a81548173ffffffffffffffffffffffffffffffffffffffff021916908373ffffffffffffffffffffffffffffffffffffffff16021790555050565b6060600080600080600160009054906101000a900473ffffffffffffffffffffffffffffffffffffffff1673ffffffffffffffffffffffffffffffffffffffff16638d824273876040518263ffffffff167c010000000000000000000000000000000000000000000000000000000002815260040180828152602001915050600060405180830381600087803b158015610daf57600080fd5b505af1158015610dc3573d6000803e3d6000fd5b505050506040513d6000823e3d601f19601f8201168201806040525060a0811015610ded57600080fd5b810190808051640100000000811115610e0557600080fd5b82810190506020810184811115610e1b57600080fd5b8151856001820283011164010000000082111715610e3857600080fd5b5050929190602001805190602001909291908051906020019092919080519060200190929190805190602001909291905050509450945094509450945091939590929450565b6000809054906101000a900473ffffffffffffffffffffffffffffffffffffffff1681565b60006060600080339150813b9050600081141515610f29576040517f08c379a00000000000000000000000000000000000000000000000000000000081526004018080602001828103825260128152602001807f20736f7272792068756d616e73206f6e6c79000000000000000000000000000081525060200191505060405180910390fd5b600160009054906101000a900473ffffffffffffffffffffffffffffffffffffffff1673ffffffffffffffffffffffffffffffffffffffff16637f6aea4e8733886040518463ffffffff167c0100000000000000000000000000000000000000000000000000000000028152600401808481526020018373ffffffffffffffffffffffffffffffffffffffff1673ffffffffffffffffffffffffffffffffffffffff1681526020018281526020019350505050600060405180830381600087803b158015610ff657600080fd5b505af115801561100a573d6000803e3d6000fd5b505050506040513d6000823e3d601f19601f82011682018060405250604081101561103457600080fd5b8101908080519060200190929190805164010000000081111561105657600080fd5b8281019050602081018481111561106c57600080fd5b815185600182028301116401000000008211171561108957600080fd5b50509291905050509350935050509250929050565b606080600160009054906101000a900473ffffffffffffffffffffffffffffffffffffffff1673ffffffffffffffffffffffffffffffffffffffff1663bfa0fc93846040518263ffffffff167c010000000000000000000000000000000000000000000000000000000002815260040180828152602001915050600060405180830381600087803b15801561113257600080fd5b505af1158015611146573d6000803e3d6000fd5b505050506040513d6000823e3d601f19601f82011682018060405250604081101561117057600080fd5b81019080805164010000000081111561118857600080fd5b8281019050602081018481111561119e57600080fd5b81518560208202830111640100000000821117156111bb57600080fd5b505092919060200180516401000000008111156111d757600080fd5b828101905060208101848111156111ed57600080fd5b815185602082028301116401000000008211171561120a57600080fd5b505092919050505091509150915091565b6000809054906101000a900473ffffffffffffffffffffffffffffffffffffffff1673ffffffffffffffffffffffffffffffffffffffff163373ffffffffffffffffffffffffffffffffffffffff1614151561127657600080fd5b600160009054906101000a900473ffffffffffffffffffffffffffffffffffffffff1673ffffffffffffffffffffffffffffffffffffffff1663cd8715d98d8d8d8d8d8d8d8d8d8d8d8d6040518d63ffffffff167c0100000000000000000000000000000000000000000000000000000000028152600401808d81526020018c81526020018b81526020018a151515158152602001898152602001888152602001878152602001868152602001806020018060200183810383528787828181526020019250602002808284378201915050838103825285858281815260200192506020028082843782019150509e505050505050505050505050505050600060405180830381600087803b15801561138d57600080fd5b505af11580156113a1573d6000803e3d6000fd5b50505050505050505050505050505050565b6000809054906101000a900473ffffffffffffffffffffffffffffffffffffffff1673ffffffffffffffffffffffffffffffffffffffff163373ffffffffffffffffffffffffffffffffffffffff1614151561140e57600080fd5b600073ffffffffffffffffffffffffffffffffffffffff168173ffffffffffffffffffffffffffffffffffffffff161415151561144a57600080fd5b806000806101000a81548173ffffffffffffffffffffffffffffffffffffffff021916908373ffffffffffffffffffffffffffffffffffffffff16021790555050565b6000806000806000806000606080600160009054906101000a900473ffffffffffffffffffffffffffffffffffffffff1673ffffffffffffffffffffffffffffffffffffffff1663ff6d728a8b6040518263ffffffff167c010000000000000000000000000000000000000000000000000000000002815260040180828152602001915050600060405180830381600087803b15801561152c57600080fd5b505af1158015611540573d6000803e3d6000fd5b505050506040513d6000823e3d601f19601f8201168201806040525061012081101561156b57600080fd5b810190808051906020019092919080519060200190929190805190602001909291908051906020019092919080519060200190929190805190602001909291908051906020019092919080516401000000008111156115c957600080fd5b828101905060208101848111156115df57600080fd5b81518560208202830111640100000000821117156115fc57600080fd5b5050929190602001805164010000000081111561161857600080fd5b8281019050602081018481111561162e57600080fd5b815185602082028301116401000000008211171561164b57600080fd5b505092919050505098509850985098509850985098509850985091939597999092949698505600a165627a7a72305820669e8957b6691aa2dcd4d3feb2449ab6f32fbe614a41f542ce898ecb915c9da80029",
  "source": "pragma solidity ^0.4.24;\r\n\r\nimport \"./VoteData.sol\";\r\nimport \"../Ownable.sol\";\r\n\r\ncontract VoteControl is Ownable {\r\n  VoteData private voteData_;\r\n\r\n\r\n  /*\r\n    接口名称：合约构造函数\r\n    参数说明：owner：抽奖活动管理者账户地址，lotteryDataAddr：数据合约地址\r\n  */\r\n  constructor(address owner, address voteDataAddr) Ownable(owner) public\r\n  {\r\n    require(owner != address(0));\r\n    require(voteDataAddr != address(0));\r\n    voteData_ = VoteData(voteDataAddr);\r\n  }\r\n\r\n  //判断是否普通账户地址\r\n  modifier isHuman() {\r\n    address addr = msg.sender;\r\n    uint codeLength;\r\n    assembly {codeLength := extcodesize(addr)}\r\n    require(codeLength == 0, \" sorry humans only\");\r\n    _;\r\n  } \r\n \r\n  // 更新数据合约地址\r\n  function updateVoteData(address voteDataAddr)\r\n    onlyOwner external\r\n  {\r\n    require(voteDataAddr != address(0));\r\n    voteData_ = VoteData(voteDataAddr);\r\n  }\r\n\r\n  /*\r\n    接口名称：新建投票活动\r\n    参数说明：name：投票活动名称\r\n  */\r\n  function newVote(string name)\r\n    onlyOwner external \r\n    returns (uint)\r\n  {\r\n    return voteData_.newVote(name);    \r\n  } \r\n \r\n  //查看最新的投票活动信息\r\n  function getLastVote()\r\n    view onlyOwner external\r\n    returns(\r\n      uint,    //投票活动ID\r\n      string   //投票活动名称\r\n    )\r\n  {\r\n    return voteData_.getLastestVote();  \r\n  }\r\n \r\n  // 设置投票活动规则\r\n  function setVoteRule(\r\n    uint voteID,            //投票活动ID\r\n    uint startTime,         //投票开始时间 Unix时间戳\r\n    uint endTime,           //投票结束时间 Unix时间戳\r\n    bool dayTimeLimit,      //是否限制每天投票时间 true:限制 false:不限制\r\n    uint dayStartTime,      //每天投票开始时间 以整点为单位\r\n    uint dayEndTime,        //每天投票结束时间 以整点为单位\r\n    uint dayVoteLimit,      //每天总投票数限制\r\n    uint voteLimitPerUser,  //每个账户投票数限制\r\n    address[] blacklist,    //投票黑名单\r\n    bytes32[] candidates    //投票候选人\r\n    )\r\n    onlyOwner external\r\n  {\r\n    voteData_.setVoteRule(\r\n      voteID,\r\n      startTime,\r\n      endTime,\r\n      dayTimeLimit,\r\n      dayStartTime,\r\n      dayEndTime,\r\n      dayVoteLimit,\r\n      voteLimitPerUser,\r\n      blacklist,\r\n      candidates\r\n    );\r\n  }  \r\n \r\n  // 查询投票活动规则\r\n  function getVoteRule(uint voteID)\r\n    view external\r\n    returns( \r\n      uint,         //投票开始时间 Unix时间戳\r\n      uint,         //投票结束时间 Unix时间戳\r\n      bool,         //是否限制每天投票时间 true:限制 false:不限制\r\n      uint,         //每天投票开始时间 以整点为单位\r\n      uint,         //每天投票结束时间 以整点为单位\r\n      uint,         //每天总投票数限制\r\n      uint,         //每个账户投票数限制\r\n      address[],    //投票黑名单\r\n      bytes32[]     //投票候选人\r\n    )\r\n  {\r\n     return voteData_.getVoteRule(voteID);\r\n  }\r\n \r\n  // 查看投票者信息\r\n  function getVoter(\r\n    uint voteID,     //投票活动ID\r\n    uint startIndex, //投票者起始位置Index,  (startIndex +num)小于等于getVoteInfo接口返回的投票者信息数量\r\n    uint num         //查看投票者信息数量\r\n    )\r\n    view external\r\n    returns(\r\n      address[],  //投票者账户地址\r\n      bytes32[],  //候选人名称\r\n      uint[]      //投票数\r\n    )\r\n  {\r\n    return voteData_.getVoter(voteID, startIndex, num);\r\n  } \r\n \r\n  // 查看投票结果\r\n  function getVoteResult(uint voteID) \r\n    view external\r\n    returns(\r\n      bytes32[],  //候选人列表， 按投票数降序排列\r\n      uint[]      //候选人获得票数\r\n    )\r\n  {\r\n    return voteData_.getVoteResult(voteID);    \r\n  } \r\n \r\n  // 查看投票信息\r\n  function getVoteInfo(uint voteID) \r\n    view public\r\n    returns(\r\n      string,   //投票活动名称\r\n      uint,     //投票人数\r\n      uint,     //总票数\r\n      uint,     //投票活动状态\r\n      uint      //投票者信息数量\r\n    )  \r\n  {\r\n    return voteData_.getVoteInfo(voteID);    \r\n  }\r\n\r\n  // 投票\r\n  function vote(\r\n    uint voteID,         //投票活动ID\r\n    uint candidateIndex  //候选人Index， 候选人列表中从0开始计算 \r\n    )\r\n    isHuman external\r\n    returns(\r\n      int,     //返回码， 0：成功  1：活动未开始 2：活动结束 3：不在当天投票时间段内 4：当天投票总次数达到上限 5:该用户投票次数达到上限 6：黑名单用户 7：所投候选人不存在\r\n      string   //错误码信息\r\n    )\r\n  {\r\n    return voteData_.voteUp(voteID, msg.sender, candidateIndex);\r\n  } \r\n}\r\n",
  "sourcePath": "C:\\Users\\Administrator\\Desktop\\vote\\contracts\\vote-system\\VoteControl.sol",
  "compiler": {
    "name": "solc",
    "version": "0.4.24+commit.e67f0147.Emscripten.clang"
  },
  "schemaVersion": "3.4.13",
  "updatedAt": "2023-03-28T05:26:03.001Z",
  "networkType": "ethereum",
  "devdoc": {
    "methods": {}
  },
  "userdoc": {
    "methods": {}
  }
}